:020000040800F2
:100000000004002045010008C10300085103000856
:10001000BD03000899010008B908000800000000AD
:100020000000000000000000000000001D070008A4
:100030009D01000800000000C50300084D080008ED
:100040005F0100085F0100085F0100085F01000810
:100050005F0100085F0100085F0100085F01000800
:100060005F0100085F0100085F0100085F010008F0
:100070005F0100085F0100085F0100085F010008E0
:100080005F0100085F0100085F0100085F010008D0
:100090005F0100085F0100085F0100085F010008C0
:1000A0005F0100085F0100085F0100085F010008B0
:1000B0005F0100085F0100085F0100085F010008A0
:1000C0005F0100085F0100085F0100085F01000890
:1000D0005F0100085F0100085F0100085F01000880
:1000E0005F0100085F0100085F0100085F01000870
:1000F0005F0100085F0100085F0100085F01000860
:100100005F0100085F0100085F0100085F0100084F
:100110005F0100085F0100085F0100085F0100083F
:100120005F0100085F0100085F0100085F0100082F
:10013000DFF80CD000F018F800480047D508000898
:10014000000400200648804706480047FEE7FEE717
:10015000FEE7FEE7FEE7FEE7FEE7FEE7FEE7FEE777
:1001600051080008310100081CB5094800900948F1
:1001700001900546009C06E0E06840F0010394E829
:10018000070098471034AC42F6D3FFF7D5FF0000C4
:100190005409000864090008FFE7FEE77047000003
:1001A00088B007900691002005900490039002907B
:1001B000019000900698C07800F00F000590069816
:1001C000C078C006002806D5FFE706988178059814
:1001D00008430590FFE70698007800284BD0FFE71A
:1001E00007980068019000200390FFE70398072814
:1001F0003DD8FFE7039901208840029006980088C7
:100200000299084004900498029988422AD1FFE795
:1002100003988000029002990F2088400090009976
:100220000198884301900598029900FA01F101981C
:10023000084301900698C078282806D1FFE7039963
:1002400001208840079948610BE00698C07848284B
:1002500006D1FFE703990120884007990861FFE76D
:10026000FFE7FFE7FFE7039801300390BEE701983F
:1002700007990860FFE706980088B0F5807F50DB9B
:10028000FFE707984068019000200390FFE703987C
:10029000072842D8FFE7039800F1080101208840B1
:1002A00002900698008802990840049004980299E8
:1002B00088422DD1FFE703988000029002990F2019
:1002C0008840009000990198884301900598029910
:1002D00000FA01F10198084301900698C078282897
:1002E00008D1FFE7039800F1080101208840079931
:1002F0004861FFE70698C078482808D1FFE70398CF
:1003000000F108010120884007990861FFE7FFE735
:10031000FFE7039801300390B9E701980799486017
:10032000FFE708B07047000082B00190ADF80210FE
:10033000BDF802000199486102B0704782B0019097
:10034000ADF80210BDF802000199086102B07047D3
:10035000FFE7FEE780B586B008200121019100F09B
:1003600033F810208DF8170020200490ADF8140009
:1003700003208DF8160040F60040C4F20100009002
:1003800005A90291FFF70CFF00980499FFF7D6FF2B
:100390000199402000F018F802990498ADF8140073
:1003A00041F60000C4F201000390FFF7F9FE039844
:1003B0000499FFF7C3FF06B080BD0000FFE7FEE72A
:1003C000704700007047000082B001908DF8031064
:1003D0009DF8030048B1FFE7019A41F21801C4F209
:1003E000020108681043086008E0019A41F2180110
:1003F000C4F20201086890430860FFE702B070474A
:1004000041F20002C4F20202106840F001001060E4
:1004100041F20401C4F2020108680023CFF6FF0391
:100420001840086010684FF6FF73CFF6F663184067
:100430001060106820F480201060086820F4FE002E
:10044000086041F20801C4F202014FF41F00086085
:100450007047000084B08DF80F00002002900190DA
:100460008DF803009DF80F004009029002980128C2
:1004700007D1FFE741F20000C4F2020000680190DA
:1004800012E00298022807D1FFE741F22000C4F2EF
:1004900002000068019006E041F22400C4F202006C
:1004A00000680190FFE7FFE79DF80F0000F01F00D4
:1004B000029001980299C840C00720B1FFE70120CF
:1004C0008DF8030003E000208DF80300FFE79DF89E
:1004D000030004B07047000041F20400C4F20200BF
:1004E000006800F00C00704782B00190002000907E
:1004F00041F20401C4F2020108680090009820F063
:10050000F0000090019A0098104300900098086055
:1005100002B0704782B0019041F20001C4F20201C2
:10052000086820F480300860086820F480200860A3
:1005300001980090B0F5803F05D0FFE70098B0F536
:10054000802F09D011E041F20001C4F202010868D5
:1005500040F48030086009E041F20001C4F2020179
:10056000086840F4A020086000E0FFE702B0704790
:1005700080B584B003900291FFF742FF4FF48030C2
:10058000FFF7C8FF00F094F8012824D1FFE700200E
:100590000190FFF7A9FF4FF4806000F01FF8019869
:1005A00000F032F80398029900F052F8012000F0B0
:1005B00043F8FFE73920FFF74DFF08B9FFE7F9E7F8
:1005C000022000F05FF8FFE7FFF786FF082801D060
:1005D000FFE7F9E7FFE704B080BD000082B00190BB
:1005E0000020009041F20401C4F20201086800906A
:1005F000009820F4E0600090019A00981043009069
:100600000098086002B0704782B00190002000900E
:1006100041F20401C4F2020108680090009820F43D
:1006200060500090019A009840EAC2000090009843
:10063000086002B07047000081B08DF803009DF89B
:1006400003006021C4F24221086001B0704700003D
:1006500083B0029001910020009041F20401C4F2A5
:10066000020108680090009820F47C100090029825
:10067000019A02430098104300900098086003B06C
:100680007047000082B001900020009041F2040108
:10069000C4F2020108680090009820F00300009066
:1006A000019A0098104300900098086002B07047CB
:1006B00080B584B0002003908DF80B008DF80A00FF
:1006C000FFE73120FFF7C6FE8DF80A0003980130DE
:1006D0000390FFE703990020B1F5A06F019007D0C8
:1006E000FFE79DF80A00B0FA80F040090190FFE7AB
:1006F0000198C0070028E4D1FFE73120FFF7AAFEE8
:1007000020B1FFE701208DF80B0003E000208DF8F9
:100710000B00FFE79DF80B0004B080BD70470000A0
:1007200080B500F001F880BD84B0002003900290F5
:1007300041F20001C4F20201086840F48030086010
:10074000FFE741F20000C4F20200006800F400304C
:100750000290039801300390FFE702990020019076
:1007600039B9FFE70398B0F5A06018BF01200190E8
:10077000FFE70198C0070028E3D1FFE741F200003E
:10078000C4F2020000688003002803D5FFE70120BF
:10079000029002E000200290FFE70298012851D168
:1007A000FFE742F20001C4F20201086840F01000C5
:1007B0000860086820F003000860086840F0020044
:1007C000086041F20401C4F2020100910868086067
:1007D00008680860086840F480600860086820F4D1
:1007E0007C100860086840F4E810086041F20001DD
:1007F000C4F20201086840F080700860FFE741F22F
:100800000000C4F2020000688001002801D4FFE764
:10081000F5E741F20401C4F20201086820F0030088
:100820000860086840F002000860FFE741F2040039
:10083000C4F20200006800F00C00082801D0FFE7B5
:10084000F4E700E0FFE704B07047000070470000E5
:1008500080B541F20002C4F20202106840F00100CB
:10086000106041F20401C4F2020108680023CFF6CF
:10087000FF031840086010684FF6FF73CFF6F66369
:1008800018401060106820F480201060086820F480
:10089000FE00086041F20801C4F202014FF41F009B
:1008A0000860FFF73DFF4EF60851CEF200014FF011
:1008B0000060086080BD0000FFE7FEE781B00090A7
:1008C000FFE700980138009008B1FFE7F9E701B0B1
:1008D0007047000080B586B000200590FFF73AFD14
:1008E000FFE74FF440304FF4E011FFF741FE40F6D0
:1008F0000040C4F20100019020210391FFF714FD94
:10090000039941F60000C4F201000290FFF716FDC2
:1009100048F68050C0F25B000490FFF7CFFF0198CB
:100920000399FFF70BFD02980399FFF7FDFC04986C
:10093000FFF7C4FFD5E702E008C8121F08C1002A6C
:10094000FAD170477047002001E001C1121F002A50
:10095000FBD170476409000800000020000400007B
:04096000460900083C
:0400000508000145A9
:00000001FF
