:020000040800F2
:100000000004002045010008AD0300083D0300087E
:10001000A9030008990100088905000800000000F4
:10002000000000000000000000000000ED030008D8
:100030009D01000800000000B10300081D05000834
:100040005F0100085F0100085F0100085F01000810
:100050005F0100085F0100085F0100085F01000800
:100060005F0100085F0100085F0100085F010008F0
:100070005F0100085F0100085F0100085F010008E0
:100080005F0100085F0100085F0100085F010008D0
:100090005F0100085F0100085F0100085F010008C0
:1000A0005F0100085F0100085F0100085F010008B0
:1000B0005F0100085F0100085F0100085F010008A0
:1000C0005F0100085F0100085F0100085F01000890
:1000D0005F0100085F0100085F0100085F01000880
:1000E0005F0100085F0100085F0100085F01000870
:1000F0005F0100085F0100085F0100085F01000860
:100100005F0100085F0100085F0100085F0100084F
:100110005F0100085F0100085F0100085F0100083F
:100120005F0100085F0100085F0100085F0100082F
:10013000DFF80CD000F018F800480047A5050008CB
:10014000000400200648804706480047FEE7FEE717
:10015000FEE7FEE7FEE7FEE7FEE7FEE7FEE7FEE777
:1001600021050008310100081CB509480090094824
:1001700001900546009C06E0E06840F0010394E829
:10018000070098471034AC42F6D3FFF7D5FF0000C4
:100190001806000828060008FFE7FEE77047000081
:1001A00088B007900691002005900490039002907B
:1001B000019000900698C07800F00F000590069816
:1001C000C078C006002806D5FFE706988178059814
:1001D00008430590FFE70698007800284BD0FFE71A
:1001E00007980068019000200390FFE70398072814
:1001F0003DD8FFE7039901208840029006980088C7
:100200000299084004900498029988422AD1FFE795
:1002100003988000029002990F2088400090009976
:100220000198884301900598029900FA01F101981C
:10023000084301900698C078282806D1FFE7039963
:1002400001208840079948610BE00698C07848284B
:1002500006D1FFE703990120884007990861FFE76D
:10026000FFE7FFE7FFE7039801300390BEE701983F
:1002700007990860FFE706980088B0F5807F50DB9B
:10028000FFE707984068019000200390FFE703987C
:10029000072842D8FFE7039800F1080101208840B1
:1002A00002900698008802990840049004980299E8
:1002B00088422DD1FFE703988000029002990F2019
:1002C0008840009000990198884301900598029910
:1002D00000FA01F10198084301900698C078282897
:1002E00008D1FFE7039800F1080101208840079931
:1002F0004861FFE70698C078482808D1FFE70398CF
:1003000000F108010120884007990861FFE7FFE735
:10031000FFE7039801300390B9E701980799486017
:10032000FFE708B07047000082B00190ADF80210FE
:10033000BDF802000199086102B07047FFE7FEE7CF
:1003400080B586B008200121019100F033F810201B
:100350008DF8170020200490ADF8140003208DF8CC
:10036000160040F60040C4F20100009005A9029179
:10037000FFF716FF00980499FFF7D6FF0199402078
:1003800000F018F802990498ADF8140041F6000046
:10039000C4F201000390FFF703FF03980499FFF7ED
:1003A000C3FF06B080BD0000FFE7FEE77047000016
:1003B0007047000082B001908DF803109DF8030093
:1003C00048B1FFE7019A41F21801C4F2020108683E
:1003D0001043086008E0019A41F21801C4F20201DA
:1003E000086890430860FFE702B07047704700005C
:1003F00080B500F001F880BD84B000200390029029
:1004000041F20001C4F20201086840F48030086043
:10041000FFE741F20000C4F20200006800F400307F
:100420000290039801300390FFE7029900200190A9
:1004300039B9FFE70398B0F5A06018BF012001901B
:10044000FFE70198C0070028E3D1FFE741F2000071
:10045000C4F2020000688003002803D5FFE70120F2
:10046000029002E000200290FFE70298012851D19B
:10047000FFE742F20001C4F20201086840F01000F8
:100480000860086820F003000860086840F0020077
:10049000086041F20401C4F202010091086808609A
:1004A00008680860086840F480600860086820F404
:1004B0007C100860086840F4E810086041F2000110
:1004C000C4F20201086840F080700860FFE741F262
:1004D0000000C4F2020000688001002801D4FFE798
:1004E000F5E741F20401C4F20201086820F00300BC
:1004F0000860086840F002000860FFE741F204006D
:10050000C4F20200006800F00C00082801D0FFE7E8
:10051000F4E700E0FFE704B0704700007047000018
:1005200080B541F20002C4F20202106840F00100FE
:10053000106041F20401C4F2020108680023CFF602
:10054000FF031840086010684FF6FF73CFF6F6639C
:1005500018401060106820F480201060086820F4B3
:10056000FE00086041F20801C4F202014FF41F00CE
:100570000860FFF73DFF4EF60851CEF200014FF044
:100580000060086080BD0000FFE7FEE781B00090DA
:10059000FFE700980138009008B1FFE7F9E701B0E4
:1005A0007047000080B586B000200590FFF7C8FEB8
:1005B000FFE748F29411C4F221210291002001903A
:1005C000086040F29411C4F22321009101200390AD
:1005D000086048F68050C0F25B000490FFF7D6FF39
:1005E000DDF800C0019B029A03990498CCF8003012
:1005F0001160FFF7CBFFDCE702E008C8121F08C15B
:10060000002AFAD170477047002001E001C1121F93
:10061000002AFBD1704700002806000800000020D7
:080620000004000008060008B8
:0400000508000145A9
:00000001FF
